{
	"withdraw.sol": {
		"WithdrawHelper": {
			"abi": [
				{
					"inputs": [],
					"stateMutability": "nonpayable",
					"type": "constructor"
				},
				{
					"inputs": [],
					"name": "owner",
					"outputs": [
						{
							"internalType": "address",
							"name": "",
							"type": "address"
						}
					],
					"stateMutability": "view",
					"type": "function"
				},
				{
					"inputs": [],
					"name": "withdrawAllETH",
					"outputs": [],
					"stateMutability": "nonpayable",
					"type": "function"
				},
				{
					"inputs": [
						{
							"internalType": "address payable",
							"name": "oldContract",
							"type": "address"
						}
					],
					"name": "withdrawETH",
					"outputs": [],
					"stateMutability": "nonpayable",
					"type": "function"
				},
				{
					"stateMutability": "payable",
					"type": "receive"
				}
			],
			"devdoc": {
				"kind": "dev",
				"methods": {},
				"version": 1
			},
			"evm": {
				"assembly": "    /* \"withdraw.sol\":60:731  contract WithdrawHelper {\r... */\n  mstore(0x40, 0x80)\n    /* \"withdraw.sol\":120:171  constructor() {\r... */\n  callvalue\n  dup1\n  iszero\n  tag_1\n  jumpi\n  0x00\n  dup1\n  revert\ntag_1:\n  pop\n    /* \"withdraw.sol\":153:163  msg.sender */\n  caller\n    /* \"withdraw.sol\":145:150  owner */\n  0x00\n  dup1\n    /* \"withdraw.sol\":145:163  owner = msg.sender */\n  0x0100\n  exp\n  dup2\n  sload\n  dup2\n  0xffffffffffffffffffffffffffffffffffffffff\n  mul\n  not\n  and\n  swap1\n  dup4\n  0xffffffffffffffffffffffffffffffffffffffff\n  and\n  mul\n  or\n  swap1\n  sstore\n  pop\n    /* \"withdraw.sol\":60:731  contract WithdrawHelper {\r... */\n  dataSize(sub_0)\n  dup1\n  dataOffset(sub_0)\n  0x00\n  codecopy\n  0x00\n  return\nstop\n\nsub_0: assembly {\n        /* \"withdraw.sol\":60:731  contract WithdrawHelper {\r... */\n      mstore(0x40, 0x80)\n      jumpi(tag_1, lt(calldatasize, 0x04))\n      shr(0xe0, calldataload(0x00))\n      dup1\n      0x690d8320\n      eq\n      tag_3\n      jumpi\n      dup1\n      0x8da5cb5b\n      eq\n      tag_4\n      jumpi\n      dup1\n      0x90386bbf\n      eq\n      tag_5\n      jumpi\n      jump(tag_2)\n    tag_1:\n      jumpi(tag_2, calldatasize)\n      stop\n    tag_2:\n      0x00\n      dup1\n      revert\n        /* \"withdraw.sol\":179:518  function withdrawETH(address payable oldContract) external {\r... */\n    tag_3:\n      callvalue\n      dup1\n      iszero\n      tag_8\n      jumpi\n      0x00\n      dup1\n      revert\n    tag_8:\n      pop\n      tag_9\n      0x04\n      dup1\n      calldatasize\n      sub\n      dup2\n      add\n      swap1\n      tag_10\n      swap2\n      swap1\n      tag_11\n      jump\t// in\n    tag_10:\n      tag_12\n      jump\t// in\n    tag_9:\n      stop\n        /* \"withdraw.sol\":91:111  address public owner */\n    tag_4:\n      callvalue\n      dup1\n      iszero\n      tag_13\n      jumpi\n      0x00\n      dup1\n      revert\n    tag_13:\n      pop\n      tag_14\n      tag_15\n      jump\t// in\n    tag_14:\n      mload(0x40)\n      tag_16\n      swap2\n      swap1\n      tag_17\n      jump\t// in\n    tag_16:\n      mload(0x40)\n      dup1\n      swap2\n      sub\n      swap1\n      return\n        /* \"withdraw.sol\":526:691  function withdrawAllETH() external {\r... */\n    tag_5:\n      callvalue\n      dup1\n      iszero\n      tag_18\n      jumpi\n      0x00\n      dup1\n      revert\n    tag_18:\n      pop\n      tag_19\n      tag_20\n      jump\t// in\n    tag_19:\n      stop\n        /* \"withdraw.sol\":179:518  function withdrawETH(address payable oldContract) external {\r... */\n    tag_12:\n        /* \"withdraw.sol\":271:276  owner */\n      0x00\n      dup1\n      sload\n      swap1\n      0x0100\n      exp\n      swap1\n      div\n      0xffffffffffffffffffffffffffffffffffffffff\n      and\n        /* \"withdraw.sol\":257:276  msg.sender == owner */\n      0xffffffffffffffffffffffffffffffffffffffff\n      and\n        /* \"withdraw.sol\":257:267  msg.sender */\n      caller\n        /* \"withdraw.sol\":257:276  msg.sender == owner */\n      0xffffffffffffffffffffffffffffffffffffffff\n      and\n      eq\n        /* \"withdraw.sol\":249:303  require(msg.sender == owner, \"Not the contract owner\") */\n      tag_22\n      jumpi\n      mload(0x40)\n      0x08c379a000000000000000000000000000000000000000000000000000000000\n      dup2\n      mstore\n      0x04\n      add\n      tag_23\n      swap1\n      tag_24\n      jump\t// in\n    tag_23:\n      mload(0x40)\n      dup1\n      swap2\n      sub\n      swap1\n      revert\n    tag_22:\n        /* \"withdraw.sol\":315:327  bool success */\n      0x00\n        /* \"withdraw.sol\":329:352  bytes memory returnData */\n      dup1\n        /* \"withdraw.sol\":356:367  oldContract */\n      dup3\n        /* \"withdraw.sol\":356:372  oldContract.call */\n      0xffffffffffffffffffffffffffffffffffffffff\n      and\n        /* \"withdraw.sol\":380:381  0 */\n      0x00\n        /* \"withdraw.sol\":383:423  abi.encodeWithSignature(\"withdrawETH()\") */\n      add(0x24, mload(0x40))\n      mload(0x40)\n      0x20\n      dup2\n      dup4\n      sub\n      sub\n      dup2\n      mstore\n      swap1\n      0x40\n      mstore\n      and(not(0xffffffffffffffffffffffffffffffffffffffffffffffffffffffff), 0xe086e5ec00000000000000000000000000000000000000000000000000000000)\n      0x20\n      dup3\n      add\n      dup1\n      mload\n      0xffffffffffffffffffffffffffffffffffffffffffffffffffffffff\n      dup4\n      dup2\n      dup4\n      and\n      or\n      dup4\n      mstore\n      pop\n      pop\n      pop\n      pop\n        /* \"withdraw.sol\":356:424  oldContract.call{value: 0}(abi.encodeWithSignature(\"withdrawETH()\")) */\n      mload(0x40)\n      tag_25\n      swap2\n      swap1\n      tag_26\n      jump\t// in\n    tag_25:\n      0x00\n      mload(0x40)\n      dup1\n      dup4\n      sub\n      dup2\n      dup6\n      dup8\n      gas\n      call\n      swap3\n      pop\n      pop\n      pop\n      returndatasize\n      dup1\n      0x00\n      dup2\n      eq\n      tag_29\n      jumpi\n      mload(0x40)\n      swap2\n      pop\n      and(add(returndatasize, 0x3f), not(0x1f))\n      dup3\n      add\n      0x40\n      mstore\n      returndatasize\n      dup3\n      mstore\n      returndatasize\n      0x00\n      0x20\n      dup5\n      add\n      returndatacopy\n      jump(tag_28)\n    tag_29:\n      0x60\n      swap2\n      pop\n    tag_28:\n      pop\n        /* \"withdraw.sol\":314:424  (bool success, bytes memory returnData) = oldContract.call{value: 0}(abi.encodeWithSignature(\"withdrawETH()\")) */\n      swap2\n      pop\n      swap2\n      pop\n        /* \"withdraw.sol\":443:450  success */\n      dup2\n        /* \"withdraw.sol\":497:507  returnData */\n      dup2\n        /* \"withdraw.sol\":459:508  abi.encodePacked(\"Withdraw failed: \", returnData) */\n      add(0x20, mload(0x40))\n      tag_30\n      swap2\n      swap1\n      tag_31\n      jump\t// in\n    tag_30:\n      mload(0x40)\n      0x20\n      dup2\n      dup4\n      sub\n      sub\n      dup2\n      mstore\n      swap1\n      0x40\n      mstore\n        /* \"withdraw.sol\":435:510  require(success, string(abi.encodePacked(\"Withdraw failed: \", returnData))) */\n      swap1\n      tag_32\n      jumpi\n      mload(0x40)\n      0x08c379a000000000000000000000000000000000000000000000000000000000\n      dup2\n      mstore\n      0x04\n      add\n      tag_33\n      swap2\n      swap1\n      tag_34\n      jump\t// in\n    tag_33:\n      mload(0x40)\n      dup1\n      swap2\n      sub\n      swap1\n      revert\n    tag_32:\n      pop\n        /* \"withdraw.sol\":179:518  function withdrawETH(address payable oldContract) external {\r... */\n      pop\n      pop\n      pop\n      jump\t// out\n        /* \"withdraw.sol\":91:111  address public owner */\n    tag_15:\n      0x00\n      dup1\n      sload\n      swap1\n      0x0100\n      exp\n      swap1\n      div\n      0xffffffffffffffffffffffffffffffffffffffff\n      and\n      dup2\n      jump\t// out\n        /* \"withdraw.sol\":526:691  function withdrawAllETH() external {\r... */\n    tag_20:\n        /* \"withdraw.sol\":594:599  owner */\n      0x00\n      dup1\n      sload\n      swap1\n      0x0100\n      exp\n      swap1\n      div\n      0xffffffffffffffffffffffffffffffffffffffff\n      and\n        /* \"withdraw.sol\":580:599  msg.sender == owner */\n      0xffffffffffffffffffffffffffffffffffffffff\n      and\n        /* \"withdraw.sol\":580:590  msg.sender */\n      caller\n        /* \"withdraw.sol\":580:599  msg.sender == owner */\n      0xffffffffffffffffffffffffffffffffffffffff\n      and\n      eq\n        /* \"withdraw.sol\":572:626  require(msg.sender == owner, \"Not the contract owner\") */\n      tag_36\n      jumpi\n      mload(0x40)\n      0x08c379a000000000000000000000000000000000000000000000000000000000\n      dup2\n      mstore\n      0x04\n      add\n      tag_37\n      swap1\n      tag_24\n      jump\t// in\n    tag_37:\n      mload(0x40)\n      dup1\n      swap2\n      sub\n      swap1\n      revert\n    tag_36:\n        /* \"withdraw.sol\":645:650  owner */\n      0x00\n      dup1\n      sload\n      swap1\n      0x0100\n      exp\n      swap1\n      div\n      0xffffffffffffffffffffffffffffffffffffffff\n      and\n        /* \"withdraw.sol\":637:660  payable(owner).transfer */\n      0xffffffffffffffffffffffffffffffffffffffff\n      and\n        /* \"withdraw.sol\":637:683  payable(owner).transfer(address(this).balance) */\n      0x08fc\n        /* \"withdraw.sol\":661:682  address(this).balance */\n      selfbalance\n        /* \"withdraw.sol\":637:683  payable(owner).transfer(address(this).balance) */\n      swap1\n      dup2\n      iszero\n      mul\n      swap1\n      mload(0x40)\n      0x00\n      mload(0x40)\n      dup1\n      dup4\n      sub\n      dup2\n      dup6\n      dup9\n      dup9\n      call\n      swap4\n      pop\n      pop\n      pop\n      pop\n      iszero\n      dup1\n      iszero\n      tag_39\n      jumpi\n      returndatasize\n      0x00\n      dup1\n      returndatacopy\n      revert(0x00, returndatasize)\n    tag_39:\n      pop\n        /* \"withdraw.sol\":526:691  function withdrawAllETH() external {\r... */\n      jump\t// out\n        /* \"#utility.yul\":7:162   */\n    tag_41:\n      0x00\n        /* \"#utility.yul\":99:105   */\n      dup2\n        /* \"#utility.yul\":86:106   */\n      calldataload\n        /* \"#utility.yul\":77:106   */\n      swap1\n      pop\n        /* \"#utility.yul\":115:156   */\n      tag_43\n        /* \"#utility.yul\":150:155   */\n      dup2\n        /* \"#utility.yul\":115:156   */\n      tag_44\n      jump\t// in\n    tag_43:\n        /* \"#utility.yul\":67:162   */\n      swap3\n      swap2\n      pop\n      pop\n      jump\t// out\n        /* \"#utility.yul\":168:446   */\n    tag_11:\n      0x00\n        /* \"#utility.yul\":284:286   */\n      0x20\n        /* \"#utility.yul\":272:281   */\n      dup3\n        /* \"#utility.yul\":263:270   */\n      dup5\n        /* \"#utility.yul\":259:282   */\n      sub\n        /* \"#utility.yul\":255:287   */\n      slt\n        /* \"#utility.yul\":252:254   */\n      iszero\n      tag_46\n      jumpi\n        /* \"#utility.yul\":300:301   */\n      0x00\n        /* \"#utility.yul\":297:298   */\n      dup1\n        /* \"#utility.yul\":290:302   */\n      revert\n        /* \"#utility.yul\":252:254   */\n    tag_46:\n        /* \"#utility.yul\":343:344   */\n      0x00\n        /* \"#utility.yul\":368:429   */\n      tag_47\n        /* \"#utility.yul\":421:428   */\n      dup5\n        /* \"#utility.yul\":412:418   */\n      dup3\n        /* \"#utility.yul\":401:410   */\n      dup6\n        /* \"#utility.yul\":397:419   */\n      add\n        /* \"#utility.yul\":368:429   */\n      tag_41\n      jump\t// in\n    tag_47:\n        /* \"#utility.yul\":358:429   */\n      swap2\n      pop\n        /* \"#utility.yul\":314:439   */\n      pop\n        /* \"#utility.yul\":242:446   */\n      swap3\n      swap2\n      pop\n      pop\n      jump\t// out\n        /* \"#utility.yul\":452:570   */\n    tag_48:\n        /* \"#utility.yul\":539:563   */\n      tag_50\n        /* \"#utility.yul\":557:562   */\n      dup2\n        /* \"#utility.yul\":539:563   */\n      tag_51\n      jump\t// in\n    tag_50:\n        /* \"#utility.yul\":534:537   */\n      dup3\n        /* \"#utility.yul\":527:564   */\n      mstore\n        /* \"#utility.yul\":517:570   */\n      pop\n      pop\n      jump\t// out\n        /* \"#utility.yul\":576:949   */\n    tag_52:\n      0x00\n        /* \"#utility.yul\":708:746   */\n      tag_54\n        /* \"#utility.yul\":740:745   */\n      dup3\n        /* \"#utility.yul\":708:746   */\n      tag_55\n      jump\t// in\n    tag_54:\n        /* \"#utility.yul\":762:850   */\n      tag_56\n        /* \"#utility.yul\":843:849   */\n      dup2\n        /* \"#utility.yul\":838:841   */\n      dup6\n        /* \"#utility.yul\":762:850   */\n      tag_57\n      jump\t// in\n    tag_56:\n        /* \"#utility.yul\":755:850   */\n      swap4\n      pop\n        /* \"#utility.yul\":859:911   */\n      tag_58\n        /* \"#utility.yul\":904:910   */\n      dup2\n        /* \"#utility.yul\":899:902   */\n      dup6\n        /* \"#utility.yul\":892:896   */\n      0x20\n        /* \"#utility.yul\":885:890   */\n      dup7\n        /* \"#utility.yul\":881:897   */\n      add\n        /* \"#utility.yul\":859:911   */\n      tag_59\n      jump\t// in\n    tag_58:\n        /* \"#utility.yul\":936:942   */\n      dup1\n        /* \"#utility.yul\":931:934   */\n      dup5\n        /* \"#utility.yul\":927:943   */\n      add\n        /* \"#utility.yul\":920:943   */\n      swap2\n      pop\n        /* \"#utility.yul\":684:949   */\n      pop\n      swap3\n      swap2\n      pop\n      pop\n      jump\t// out\n        /* \"#utility.yul\":955:1319   */\n    tag_60:\n      0x00\n        /* \"#utility.yul\":1071:1110   */\n      tag_62\n        /* \"#utility.yul\":1104:1109   */\n      dup3\n        /* \"#utility.yul\":1071:1110   */\n      tag_63\n      jump\t// in\n    tag_62:\n        /* \"#utility.yul\":1126:1197   */\n      tag_64\n        /* \"#utility.yul\":1190:1196   */\n      dup2\n        /* \"#utility.yul\":1185:1188   */\n      dup6\n        /* \"#utility.yul\":1126:1197   */\n      tag_65\n      jump\t// in\n    tag_64:\n        /* \"#utility.yul\":1119:1197   */\n      swap4\n      pop\n        /* \"#utility.yul\":1206:1258   */\n      tag_66\n        /* \"#utility.yul\":1251:1257   */\n      dup2\n        /* \"#utility.yul\":1246:1249   */\n      dup6\n        /* \"#utility.yul\":1239:1243   */\n      0x20\n        /* \"#utility.yul\":1232:1237   */\n      dup7\n        /* \"#utility.yul\":1228:1244   */\n      add\n        /* \"#utility.yul\":1206:1258   */\n      tag_59\n      jump\t// in\n    tag_66:\n        /* \"#utility.yul\":1283:1312   */\n      tag_67\n        /* \"#utility.yul\":1305:1311   */\n      dup2\n        /* \"#utility.yul\":1283:1312   */\n      tag_68\n      jump\t// in\n    tag_67:\n        /* \"#utility.yul\":1278:1281   */\n      dup5\n        /* \"#utility.yul\":1274:1313   */\n      add\n        /* \"#utility.yul\":1267:1313   */\n      swap2\n      pop\n        /* \"#utility.yul\":1047:1319   */\n      pop\n      swap3\n      swap2\n      pop\n      pop\n      jump\t// out\n        /* \"#utility.yul\":1325:1676   */\n    tag_69:\n      0x00\n        /* \"#utility.yul\":1506:1591   */\n      tag_71\n        /* \"#utility.yul\":1588:1590   */\n      0x11\n        /* \"#utility.yul\":1583:1586   */\n      dup4\n        /* \"#utility.yul\":1506:1591   */\n      tag_72\n      jump\t// in\n    tag_71:\n        /* \"#utility.yul\":1499:1591   */\n      swap2\n      pop\n        /* \"#utility.yul\":1621:1640   */\n      0x5769746864726177206661696c65643a20000000000000000000000000000000\n        /* \"#utility.yul\":1617:1618   */\n      0x00\n        /* \"#utility.yul\":1612:1615   */\n      dup4\n        /* \"#utility.yul\":1608:1619   */\n      add\n        /* \"#utility.yul\":1601:1641   */\n      mstore\n        /* \"#utility.yul\":1667:1669   */\n      0x11\n        /* \"#utility.yul\":1662:1665   */\n      dup3\n        /* \"#utility.yul\":1658:1670   */\n      add\n        /* \"#utility.yul\":1651:1670   */\n      swap1\n      pop\n        /* \"#utility.yul\":1489:1676   */\n      swap2\n      swap1\n      pop\n      jump\t// out\n        /* \"#utility.yul\":1682:2002   */\n    tag_73:\n      0x00\n        /* \"#utility.yul\":1845:1912   */\n      tag_75\n        /* \"#utility.yul\":1909:1911   */\n      0x16\n        /* \"#utility.yul\":1904:1907   */\n      dup4\n        /* \"#utility.yul\":1845:1912   */\n      tag_65\n      jump\t// in\n    tag_75:\n        /* \"#utility.yul\":1838:1912   */\n      swap2\n      pop\n        /* \"#utility.yul\":1942:1966   */\n      0x4e6f742074686520636f6e7472616374206f776e657200000000000000000000\n        /* \"#utility.yul\":1938:1939   */\n      0x00\n        /* \"#utility.yul\":1933:1936   */\n      dup4\n        /* \"#utility.yul\":1929:1940   */\n      add\n        /* \"#utility.yul\":1922:1967   */\n      mstore\n        /* \"#utility.yul\":1993:1995   */\n      0x20\n        /* \"#utility.yul\":1988:1991   */\n      dup3\n        /* \"#utility.yul\":1984:1996   */\n      add\n        /* \"#utility.yul\":1977:1996   */\n      swap1\n      pop\n        /* \"#utility.yul\":1828:2002   */\n      swap2\n      swap1\n      pop\n      jump\t// out\n        /* \"#utility.yul\":2008:2279   */\n    tag_26:\n      0x00\n        /* \"#utility.yul\":2160:2253   */\n      tag_77\n        /* \"#utility.yul\":2249:2252   */\n      dup3\n        /* \"#utility.yul\":2240:2246   */\n      dup5\n        /* \"#utility.yul\":2160:2253   */\n      tag_52\n      jump\t// in\n    tag_77:\n        /* \"#utility.yul\":2153:2253   */\n      swap2\n      pop\n        /* \"#utility.yul\":2270:2273   */\n      dup2\n        /* \"#utility.yul\":2263:2273   */\n      swap1\n      pop\n        /* \"#utility.yul\":2142:2279   */\n      swap3\n      swap2\n      pop\n      pop\n      jump\t// out\n        /* \"#utility.yul\":2285:2822   */\n    tag_31:\n      0x00\n        /* \"#utility.yul\":2538:2686   */\n      tag_79\n        /* \"#utility.yul\":2682:2685   */\n      dup3\n        /* \"#utility.yul\":2538:2686   */\n      tag_69\n      jump\t// in\n    tag_79:\n        /* \"#utility.yul\":2531:2686   */\n      swap2\n      pop\n        /* \"#utility.yul\":2703:2796   */\n      tag_80\n        /* \"#utility.yul\":2792:2795   */\n      dup3\n        /* \"#utility.yul\":2783:2789   */\n      dup5\n        /* \"#utility.yul\":2703:2796   */\n      tag_52\n      jump\t// in\n    tag_80:\n        /* \"#utility.yul\":2696:2796   */\n      swap2\n      pop\n        /* \"#utility.yul\":2813:2816   */\n      dup2\n        /* \"#utility.yul\":2806:2816   */\n      swap1\n      pop\n        /* \"#utility.yul\":2520:2822   */\n      swap3\n      swap2\n      pop\n      pop\n      jump\t// out\n        /* \"#utility.yul\":2828:3050   */\n    tag_17:\n      0x00\n        /* \"#utility.yul\":2959:2961   */\n      0x20\n        /* \"#utility.yul\":2948:2957   */\n      dup3\n        /* \"#utility.yul\":2944:2962   */\n      add\n        /* \"#utility.yul\":2936:2962   */\n      swap1\n      pop\n        /* \"#utility.yul\":2972:3043   */\n      tag_82\n        /* \"#utility.yul\":3040:3041   */\n      0x00\n        /* \"#utility.yul\":3029:3038   */\n      dup4\n        /* \"#utility.yul\":3025:3042   */\n      add\n        /* \"#utility.yul\":3016:3022   */\n      dup5\n        /* \"#utility.yul\":2972:3043   */\n      tag_48\n      jump\t// in\n    tag_82:\n        /* \"#utility.yul\":2926:3050   */\n      swap3\n      swap2\n      pop\n      pop\n      jump\t// out\n        /* \"#utility.yul\":3056:3369   */\n    tag_34:\n      0x00\n        /* \"#utility.yul\":3207:3209   */\n      0x20\n        /* \"#utility.yul\":3196:3205   */\n      dup3\n        /* \"#utility.yul\":3192:3210   */\n      add\n        /* \"#utility.yul\":3184:3210   */\n      swap1\n      pop\n        /* \"#utility.yul\":3256:3265   */\n      dup2\n        /* \"#utility.yul\":3250:3254   */\n      dup2\n        /* \"#utility.yul\":3246:3266   */\n      sub\n        /* \"#utility.yul\":3242:3243   */\n      0x00\n        /* \"#utility.yul\":3231:3240   */\n      dup4\n        /* \"#utility.yul\":3227:3244   */\n      add\n        /* \"#utility.yul\":3220:3267   */\n      mstore\n        /* \"#utility.yul\":3284:3362   */\n      tag_84\n        /* \"#utility.yul\":3357:3361   */\n      dup2\n        /* \"#utility.yul\":3348:3354   */\n      dup5\n        /* \"#utility.yul\":3284:3362   */\n      tag_60\n      jump\t// in\n    tag_84:\n        /* \"#utility.yul\":3276:3362   */\n      swap1\n      pop\n        /* \"#utility.yul\":3174:3369   */\n      swap3\n      swap2\n      pop\n      pop\n      jump\t// out\n        /* \"#utility.yul\":3375:3794   */\n    tag_24:\n      0x00\n        /* \"#utility.yul\":3579:3581   */\n      0x20\n        /* \"#utility.yul\":3568:3577   */\n      dup3\n        /* \"#utility.yul\":3564:3582   */\n      add\n        /* \"#utility.yul\":3556:3582   */\n      swap1\n      pop\n        /* \"#utility.yul\":3628:3637   */\n      dup2\n        /* \"#utility.yul\":3622:3626   */\n      dup2\n        /* \"#utility.yul\":3618:3638   */\n      sub\n        /* \"#utility.yul\":3614:3615   */\n      0x00\n        /* \"#utility.yul\":3603:3612   */\n      dup4\n        /* \"#utility.yul\":3599:3616   */\n      add\n        /* \"#utility.yul\":3592:3639   */\n      mstore\n        /* \"#utility.yul\":3656:3787   */\n      tag_86\n        /* \"#utility.yul\":3782:3786   */\n      dup2\n        /* \"#utility.yul\":3656:3787   */\n      tag_73\n      jump\t// in\n    tag_86:\n        /* \"#utility.yul\":3648:3787   */\n      swap1\n      pop\n        /* \"#utility.yul\":3546:3794   */\n      swap2\n      swap1\n      pop\n      jump\t// out\n        /* \"#utility.yul\":3800:3898   */\n    tag_55:\n      0x00\n        /* \"#utility.yul\":3885:3890   */\n      dup2\n        /* \"#utility.yul\":3879:3891   */\n      mload\n        /* \"#utility.yul\":3869:3891   */\n      swap1\n      pop\n        /* \"#utility.yul\":3858:3898   */\n      swap2\n      swap1\n      pop\n      jump\t// out\n        /* \"#utility.yul\":3904:4003   */\n    tag_63:\n      0x00\n        /* \"#utility.yul\":3990:3995   */\n      dup2\n        /* \"#utility.yul\":3984:3996   */\n      mload\n        /* \"#utility.yul\":3974:3996   */\n      swap1\n      pop\n        /* \"#utility.yul\":3963:4003   */\n      swap2\n      swap1\n      pop\n      jump\t// out\n        /* \"#utility.yul\":4009:4156   */\n    tag_57:\n      0x00\n        /* \"#utility.yul\":4147:4150   */\n      dup2\n        /* \"#utility.yul\":4132:4150   */\n      swap1\n      pop\n        /* \"#utility.yul\":4122:4156   */\n      swap3\n      swap2\n      pop\n      pop\n      jump\t// out\n        /* \"#utility.yul\":4162:4331   */\n    tag_65:\n      0x00\n        /* \"#utility.yul\":4280:4286   */\n      dup3\n        /* \"#utility.yul\":4275:4278   */\n      dup3\n        /* \"#utility.yul\":4268:4287   */\n      mstore\n        /* \"#utility.yul\":4320:4324   */\n      0x20\n        /* \"#utility.yul\":4315:4318   */\n      dup3\n        /* \"#utility.yul\":4311:4325   */\n      add\n        /* \"#utility.yul\":4296:4325   */\n      swap1\n      pop\n        /* \"#utility.yul\":4258:4331   */\n      swap3\n      swap2\n      pop\n      pop\n      jump\t// out\n        /* \"#utility.yul\":4337:4485   */\n    tag_72:\n      0x00\n        /* \"#utility.yul\":4476:4479   */\n      dup2\n        /* \"#utility.yul\":4461:4479   */\n      swap1\n      pop\n        /* \"#utility.yul\":4451:4485   */\n      swap3\n      swap2\n      pop\n      pop\n      jump\t// out\n        /* \"#utility.yul\":4491:4587   */\n    tag_51:\n      0x00\n        /* \"#utility.yul\":4557:4581   */\n      tag_93\n        /* \"#utility.yul\":4575:4580   */\n      dup3\n        /* \"#utility.yul\":4557:4581   */\n      tag_94\n      jump\t// in\n    tag_93:\n        /* \"#utility.yul\":4546:4581   */\n      swap1\n      pop\n        /* \"#utility.yul\":4536:4587   */\n      swap2\n      swap1\n      pop\n      jump\t// out\n        /* \"#utility.yul\":4593:4697   */\n    tag_95:\n      0x00\n        /* \"#utility.yul\":4667:4691   */\n      tag_97\n        /* \"#utility.yul\":4685:4690   */\n      dup3\n        /* \"#utility.yul\":4667:4691   */\n      tag_94\n      jump\t// in\n    tag_97:\n        /* \"#utility.yul\":4656:4691   */\n      swap1\n      pop\n        /* \"#utility.yul\":4646:4697   */\n      swap2\n      swap1\n      pop\n      jump\t// out\n        /* \"#utility.yul\":4703:4829   */\n    tag_94:\n      0x00\n        /* \"#utility.yul\":4780:4822   */\n      0xffffffffffffffffffffffffffffffffffffffff\n        /* \"#utility.yul\":4773:4778   */\n      dup3\n        /* \"#utility.yul\":4769:4823   */\n      and\n        /* \"#utility.yul\":4758:4823   */\n      swap1\n      pop\n        /* \"#utility.yul\":4748:4829   */\n      swap2\n      swap1\n      pop\n      jump\t// out\n        /* \"#utility.yul\":4835:5142   */\n    tag_59:\n        /* \"#utility.yul\":4903:4904   */\n      0x00\n        /* \"#utility.yul\":4913:5026   */\n    tag_100:\n        /* \"#utility.yul\":4927:4933   */\n      dup4\n        /* \"#utility.yul\":4924:4925   */\n      dup2\n        /* \"#utility.yul\":4921:4934   */\n      lt\n        /* \"#utility.yul\":4913:5026   */\n      iszero\n      tag_102\n      jumpi\n        /* \"#utility.yul\":5012:5013   */\n      dup1\n        /* \"#utility.yul\":5007:5010   */\n      dup3\n        /* \"#utility.yul\":5003:5014   */\n      add\n        /* \"#utility.yul\":4997:5015   */\n      mload\n        /* \"#utility.yul\":4993:4994   */\n      dup2\n        /* \"#utility.yul\":4988:4991   */\n      dup5\n        /* \"#utility.yul\":4984:4995   */\n      add\n        /* \"#utility.yul\":4977:5016   */\n      mstore\n        /* \"#utility.yul\":4949:4951   */\n      0x20\n        /* \"#utility.yul\":4946:4947   */\n      dup2\n        /* \"#utility.yul\":4942:4952   */\n      add\n        /* \"#utility.yul\":4937:4952   */\n      swap1\n      pop\n        /* \"#utility.yul\":4913:5026   */\n      jump(tag_100)\n    tag_102:\n        /* \"#utility.yul\":5044:5050   */\n      dup4\n        /* \"#utility.yul\":5041:5042   */\n      dup2\n        /* \"#utility.yul\":5038:5051   */\n      gt\n        /* \"#utility.yul\":5035:5037   */\n      iszero\n      tag_103\n      jumpi\n        /* \"#utility.yul\":5124:5125   */\n      0x00\n        /* \"#utility.yul\":5115:5121   */\n      dup5\n        /* \"#utility.yul\":5110:5113   */\n      dup5\n        /* \"#utility.yul\":5106:5122   */\n      add\n        /* \"#utility.yul\":5099:5126   */\n      mstore\n        /* \"#utility.yul\":5035:5037   */\n    tag_103:\n        /* \"#utility.yul\":4884:5142   */\n      pop\n      pop\n      pop\n      pop\n      jump\t// out\n        /* \"#utility.yul\":5148:5250   */\n    tag_68:\n      0x00\n        /* \"#utility.yul\":5240:5242   */\n      0x1f\n        /* \"#utility.yul\":5236:5243   */\n      not\n        /* \"#utility.yul\":5231:5233   */\n      0x1f\n        /* \"#utility.yul\":5224:5229   */\n      dup4\n        /* \"#utility.yul\":5220:5234   */\n      add\n        /* \"#utility.yul\":5216:5244   */\n      and\n        /* \"#utility.yul\":5206:5244   */\n      swap1\n      pop\n        /* \"#utility.yul\":5196:5250   */\n      swap2\n      swap1\n      pop\n      jump\t// out\n        /* \"#utility.yul\":5256:5394   */\n    tag_44:\n        /* \"#utility.yul\":5337:5369   */\n      tag_106\n        /* \"#utility.yul\":5363:5368   */\n      dup2\n        /* \"#utility.yul\":5337:5369   */\n      tag_95\n      jump\t// in\n    tag_106:\n        /* \"#utility.yul\":5330:5335   */\n      dup2\n        /* \"#utility.yul\":5327:5370   */\n      eq\n        /* \"#utility.yul\":5317:5319   */\n      tag_107\n      jumpi\n        /* \"#utility.yul\":5384:5385   */\n      0x00\n        /* \"#utility.yul\":5381:5382   */\n      dup1\n        /* \"#utility.yul\":5374:5386   */\n      revert\n        /* \"#utility.yul\":5317:5319   */\n    tag_107:\n        /* \"#utility.yul\":5307:5394   */\n      pop\n      jump\t// out\n\n    auxdata: 0xa26469706673582212209ed9cacd5b9afb323f33ce269692161400587ed7b9124d7b72d059727c08fe4b64736f6c63430008000033\n}\n",
				"bytecode": {
					"linkReferences": {},
					"object": "608060405234801561001057600080fd5b50336000806101000a81548173ffffffffffffffffffffffffffffffffffffffff021916908373ffffffffffffffffffffffffffffffffffffffff160217905550610692806100606000396000f3fe6080604052600436106100385760003560e01c8063690d8320146100445780638da5cb5b1461006d57806390386bbf146100985761003f565b3661003f57005b600080fd5b34801561005057600080fd5b5061006b600480360381019061006691906103c8565b6100af565b005b34801561007957600080fd5b50610082610298565b60405161008f9190610523565b60405180910390f35b3480156100a457600080fd5b506100ad6102bc565b005b60008054906101000a900473ffffffffffffffffffffffffffffffffffffffff1673ffffffffffffffffffffffffffffffffffffffff163373ffffffffffffffffffffffffffffffffffffffff161461013d576040517f08c379a000000000000000000000000000000000000000000000000000000000815260040161013490610560565b60405180910390fd5b6000808273ffffffffffffffffffffffffffffffffffffffff1660006040516024016040516020818303038152906040527fe086e5ec000000000000000000000000000000000000000000000000000000007bffffffffffffffffffffffffffffffffffffffffffffffffffffffff19166020820180517bffffffffffffffffffffffffffffffffffffffffffffffffffffffff83818316178352505050506040516101e991906104ea565b60006040518083038185875af1925050503d8060008114610226576040519150601f19603f3d011682016040523d82523d6000602084013e61022b565b606091505b509150915081816040516020016102429190610501565b60405160208183030381529060405290610292576040517f08c379a0000000000000000000000000000000000000000000000000000000008152600401610289919061053e565b60405180910390fd5b50505050565b60008054906101000a900473ffffffffffffffffffffffffffffffffffffffff1681565b60008054906101000a900473ffffffffffffffffffffffffffffffffffffffff1673ffffffffffffffffffffffffffffffffffffffff163373ffffffffffffffffffffffffffffffffffffffff161461034a576040517f08c379a000000000000000000000000000000000000000000000000000000000815260040161034190610560565b60405180910390fd5b60008054906101000a900473ffffffffffffffffffffffffffffffffffffffff1673ffffffffffffffffffffffffffffffffffffffff166108fc479081150290604051600060405180830381858888f193505050501580156103b0573d6000803e3d6000fd5b50565b6000813590506103c281610645565b92915050565b6000602082840312156103da57600080fd5b60006103e8848285016103b3565b91505092915050565b6103fa816105bd565b82525050565b600061040b82610580565b6104158185610596565b9350610425818560208601610601565b80840191505092915050565b600061043c8261058b565b61044681856105a1565b9350610456818560208601610601565b61045f81610634565b840191505092915050565b60006104776011836105b2565b91507f5769746864726177206661696c65643a200000000000000000000000000000006000830152601182019050919050565b60006104b76016836105a1565b91507f4e6f742074686520636f6e7472616374206f776e6572000000000000000000006000830152602082019050919050565b60006104f68284610400565b915081905092915050565b600061050c8261046a565b91506105188284610400565b915081905092915050565b600060208201905061053860008301846103f1565b92915050565b600060208201905081810360008301526105588184610431565b905092915050565b60006020820190508181036000830152610579816104aa565b9050919050565b600081519050919050565b600081519050919050565b600081905092915050565b600082825260208201905092915050565b600081905092915050565b60006105c8826105e1565b9050919050565b60006105da826105e1565b9050919050565b600073ffffffffffffffffffffffffffffffffffffffff82169050919050565b60005b8381101561061f578082015181840152602081019050610604565b8381111561062e576000848401525b50505050565b6000601f19601f8301169050919050565b61064e816105cf565b811461065957600080fd5b5056fea26469706673582212209ed9cacd5b9afb323f33ce269692161400587ed7b9124d7b72d059727c08fe4b64736f6c63430008000033",
					"opcodes": "PUSH1 0x80 PUSH1 0x40 MSTORE CALLVALUE DUP1 ISZERO PUSH2 0x10 JUMPI PUSH1 0x0 DUP1 REVERT JUMPDEST POP CALLER PUSH1 0x0 DUP1 PUSH2 0x100 EXP DUP2 SLOAD DUP2 PUSH20 0xFFFFFFFFFFFFFFFFFFFFFFFFFFFFFFFFFFFFFFFF MUL NOT AND SWAP1 DUP4 PUSH20 0xFFFFFFFFFFFFFFFFFFFFFFFFFFFFFFFFFFFFFFFF AND MUL OR SWAP1 SSTORE POP PUSH2 0x692 DUP1 PUSH2 0x60 PUSH1 0x0 CODECOPY PUSH1 0x0 RETURN INVALID PUSH1 0x80 PUSH1 0x40 MSTORE PUSH1 0x4 CALLDATASIZE LT PUSH2 0x38 JUMPI PUSH1 0x0 CALLDATALOAD PUSH1 0xE0 SHR DUP1 PUSH4 0x690D8320 EQ PUSH2 0x44 JUMPI DUP1 PUSH4 0x8DA5CB5B EQ PUSH2 0x6D JUMPI DUP1 PUSH4 0x90386BBF EQ PUSH2 0x98 JUMPI PUSH2 0x3F JUMP JUMPDEST CALLDATASIZE PUSH2 0x3F JUMPI STOP JUMPDEST PUSH1 0x0 DUP1 REVERT JUMPDEST CALLVALUE DUP1 ISZERO PUSH2 0x50 JUMPI PUSH1 0x0 DUP1 REVERT JUMPDEST POP PUSH2 0x6B PUSH1 0x4 DUP1 CALLDATASIZE SUB DUP2 ADD SWAP1 PUSH2 0x66 SWAP2 SWAP1 PUSH2 0x3C8 JUMP JUMPDEST PUSH2 0xAF JUMP JUMPDEST STOP JUMPDEST CALLVALUE DUP1 ISZERO PUSH2 0x79 JUMPI PUSH1 0x0 DUP1 REVERT JUMPDEST POP PUSH2 0x82 PUSH2 0x298 JUMP JUMPDEST PUSH1 0x40 MLOAD PUSH2 0x8F SWAP2 SWAP1 PUSH2 0x523 JUMP JUMPDEST PUSH1 0x40 MLOAD DUP1 SWAP2 SUB SWAP1 RETURN JUMPDEST CALLVALUE DUP1 ISZERO PUSH2 0xA4 JUMPI PUSH1 0x0 DUP1 REVERT JUMPDEST POP PUSH2 0xAD PUSH2 0x2BC JUMP JUMPDEST STOP JUMPDEST PUSH1 0x0 DUP1 SLOAD SWAP1 PUSH2 0x100 EXP SWAP1 DIV PUSH20 0xFFFFFFFFFFFFFFFFFFFFFFFFFFFFFFFFFFFFFFFF AND PUSH20 0xFFFFFFFFFFFFFFFFFFFFFFFFFFFFFFFFFFFFFFFF AND CALLER PUSH20 0xFFFFFFFFFFFFFFFFFFFFFFFFFFFFFFFFFFFFFFFF AND EQ PUSH2 0x13D JUMPI PUSH1 0x40 MLOAD PUSH32 0x8C379A000000000000000000000000000000000000000000000000000000000 DUP2 MSTORE PUSH1 0x4 ADD PUSH2 0x134 SWAP1 PUSH2 0x560 JUMP JUMPDEST PUSH1 0x40 MLOAD DUP1 SWAP2 SUB SWAP1 REVERT JUMPDEST PUSH1 0x0 DUP1 DUP3 PUSH20 0xFFFFFFFFFFFFFFFFFFFFFFFFFFFFFFFFFFFFFFFF AND PUSH1 0x0 PUSH1 0x40 MLOAD PUSH1 0x24 ADD PUSH1 0x40 MLOAD PUSH1 0x20 DUP2 DUP4 SUB SUB DUP2 MSTORE SWAP1 PUSH1 0x40 MSTORE PUSH32 0xE086E5EC00000000000000000000000000000000000000000000000000000000 PUSH28 0xFFFFFFFFFFFFFFFFFFFFFFFFFFFFFFFFFFFFFFFFFFFFFFFFFFFFFFFF NOT AND PUSH1 0x20 DUP3 ADD DUP1 MLOAD PUSH28 0xFFFFFFFFFFFFFFFFFFFFFFFFFFFFFFFFFFFFFFFFFFFFFFFFFFFFFFFF DUP4 DUP2 DUP4 AND OR DUP4 MSTORE POP POP POP POP PUSH1 0x40 MLOAD PUSH2 0x1E9 SWAP2 SWAP1 PUSH2 0x4EA JUMP JUMPDEST PUSH1 0x0 PUSH1 0x40 MLOAD DUP1 DUP4 SUB DUP2 DUP6 DUP8 GAS CALL SWAP3 POP POP POP RETURNDATASIZE DUP1 PUSH1 0x0 DUP2 EQ PUSH2 0x226 JUMPI PUSH1 0x40 MLOAD SWAP2 POP PUSH1 0x1F NOT PUSH1 0x3F RETURNDATASIZE ADD AND DUP3 ADD PUSH1 0x40 MSTORE RETURNDATASIZE DUP3 MSTORE RETURNDATASIZE PUSH1 0x0 PUSH1 0x20 DUP5 ADD RETURNDATACOPY PUSH2 0x22B JUMP JUMPDEST PUSH1 0x60 SWAP2 POP JUMPDEST POP SWAP2 POP SWAP2 POP DUP2 DUP2 PUSH1 0x40 MLOAD PUSH1 0x20 ADD PUSH2 0x242 SWAP2 SWAP1 PUSH2 0x501 JUMP JUMPDEST PUSH1 0x40 MLOAD PUSH1 0x20 DUP2 DUP4 SUB SUB DUP2 MSTORE SWAP1 PUSH1 0x40 MSTORE SWAP1 PUSH2 0x292 JUMPI PUSH1 0x40 MLOAD PUSH32 0x8C379A000000000000000000000000000000000000000000000000000000000 DUP2 MSTORE PUSH1 0x4 ADD PUSH2 0x289 SWAP2 SWAP1 PUSH2 0x53E JUMP JUMPDEST PUSH1 0x40 MLOAD DUP1 SWAP2 SUB SWAP1 REVERT JUMPDEST POP POP POP POP JUMP JUMPDEST PUSH1 0x0 DUP1 SLOAD SWAP1 PUSH2 0x100 EXP SWAP1 DIV PUSH20 0xFFFFFFFFFFFFFFFFFFFFFFFFFFFFFFFFFFFFFFFF AND DUP2 JUMP JUMPDEST PUSH1 0x0 DUP1 SLOAD SWAP1 PUSH2 0x100 EXP SWAP1 DIV PUSH20 0xFFFFFFFFFFFFFFFFFFFFFFFFFFFFFFFFFFFFFFFF AND PUSH20 0xFFFFFFFFFFFFFFFFFFFFFFFFFFFFFFFFFFFFFFFF AND CALLER PUSH20 0xFFFFFFFFFFFFFFFFFFFFFFFFFFFFFFFFFFFFFFFF AND EQ PUSH2 0x34A JUMPI PUSH1 0x40 MLOAD PUSH32 0x8C379A000000000000000000000000000000000000000000000000000000000 DUP2 MSTORE PUSH1 0x4 ADD PUSH2 0x341 SWAP1 PUSH2 0x560 JUMP JUMPDEST PUSH1 0x40 MLOAD DUP1 SWAP2 SUB SWAP1 REVERT JUMPDEST PUSH1 0x0 DUP1 SLOAD SWAP1 PUSH2 0x100 EXP SWAP1 DIV PUSH20 0xFFFFFFFFFFFFFFFFFFFFFFFFFFFFFFFFFFFFFFFF AND PUSH20 0xFFFFFFFFFFFFFFFFFFFFFFFFFFFFFFFFFFFFFFFF AND PUSH2 0x8FC SELFBALANCE SWAP1 DUP2 ISZERO MUL SWAP1 PUSH1 0x40 MLOAD PUSH1 0x0 PUSH1 0x40 MLOAD DUP1 DUP4 SUB DUP2 DUP6 DUP9 DUP9 CALL SWAP4 POP POP POP POP ISZERO DUP1 ISZERO PUSH2 0x3B0 JUMPI RETURNDATASIZE PUSH1 0x0 DUP1 RETURNDATACOPY RETURNDATASIZE PUSH1 0x0 REVERT JUMPDEST POP JUMP JUMPDEST PUSH1 0x0 DUP2 CALLDATALOAD SWAP1 POP PUSH2 0x3C2 DUP2 PUSH2 0x645 JUMP JUMPDEST SWAP3 SWAP2 POP POP JUMP JUMPDEST PUSH1 0x0 PUSH1 0x20 DUP3 DUP5 SUB SLT ISZERO PUSH2 0x3DA JUMPI PUSH1 0x0 DUP1 REVERT JUMPDEST PUSH1 0x0 PUSH2 0x3E8 DUP5 DUP3 DUP6 ADD PUSH2 0x3B3 JUMP JUMPDEST SWAP2 POP POP SWAP3 SWAP2 POP POP JUMP JUMPDEST PUSH2 0x3FA DUP2 PUSH2 0x5BD JUMP JUMPDEST DUP3 MSTORE POP POP JUMP JUMPDEST PUSH1 0x0 PUSH2 0x40B DUP3 PUSH2 0x580 JUMP JUMPDEST PUSH2 0x415 DUP2 DUP6 PUSH2 0x596 JUMP JUMPDEST SWAP4 POP PUSH2 0x425 DUP2 DUP6 PUSH1 0x20 DUP7 ADD PUSH2 0x601 JUMP JUMPDEST DUP1 DUP5 ADD SWAP2 POP POP SWAP3 SWAP2 POP POP JUMP JUMPDEST PUSH1 0x0 PUSH2 0x43C DUP3 PUSH2 0x58B JUMP JUMPDEST PUSH2 0x446 DUP2 DUP6 PUSH2 0x5A1 JUMP JUMPDEST SWAP4 POP PUSH2 0x456 DUP2 DUP6 PUSH1 0x20 DUP7 ADD PUSH2 0x601 JUMP JUMPDEST PUSH2 0x45F DUP2 PUSH2 0x634 JUMP JUMPDEST DUP5 ADD SWAP2 POP POP SWAP3 SWAP2 POP POP JUMP JUMPDEST PUSH1 0x0 PUSH2 0x477 PUSH1 0x11 DUP4 PUSH2 0x5B2 JUMP JUMPDEST SWAP2 POP PUSH32 0x5769746864726177206661696C65643A20000000000000000000000000000000 PUSH1 0x0 DUP4 ADD MSTORE PUSH1 0x11 DUP3 ADD SWAP1 POP SWAP2 SWAP1 POP JUMP JUMPDEST PUSH1 0x0 PUSH2 0x4B7 PUSH1 0x16 DUP4 PUSH2 0x5A1 JUMP JUMPDEST SWAP2 POP PUSH32 0x4E6F742074686520636F6E7472616374206F776E657200000000000000000000 PUSH1 0x0 DUP4 ADD MSTORE PUSH1 0x20 DUP3 ADD SWAP1 POP SWAP2 SWAP1 POP JUMP JUMPDEST PUSH1 0x0 PUSH2 0x4F6 DUP3 DUP5 PUSH2 0x400 JUMP JUMPDEST SWAP2 POP DUP2 SWAP1 POP SWAP3 SWAP2 POP POP JUMP JUMPDEST PUSH1 0x0 PUSH2 0x50C DUP3 PUSH2 0x46A JUMP JUMPDEST SWAP2 POP PUSH2 0x518 DUP3 DUP5 PUSH2 0x400 JUMP JUMPDEST SWAP2 POP DUP2 SWAP1 POP SWAP3 SWAP2 POP POP JUMP JUMPDEST PUSH1 0x0 PUSH1 0x20 DUP3 ADD SWAP1 POP PUSH2 0x538 PUSH1 0x0 DUP4 ADD DUP5 PUSH2 0x3F1 JUMP JUMPDEST SWAP3 SWAP2 POP POP JUMP JUMPDEST PUSH1 0x0 PUSH1 0x20 DUP3 ADD SWAP1 POP DUP2 DUP2 SUB PUSH1 0x0 DUP4 ADD MSTORE PUSH2 0x558 DUP2 DUP5 PUSH2 0x431 JUMP JUMPDEST SWAP1 POP SWAP3 SWAP2 POP POP JUMP JUMPDEST PUSH1 0x0 PUSH1 0x20 DUP3 ADD SWAP1 POP DUP2 DUP2 SUB PUSH1 0x0 DUP4 ADD MSTORE PUSH2 0x579 DUP2 PUSH2 0x4AA JUMP JUMPDEST SWAP1 POP SWAP2 SWAP1 POP JUMP JUMPDEST PUSH1 0x0 DUP2 MLOAD SWAP1 POP SWAP2 SWAP1 POP JUMP JUMPDEST PUSH1 0x0 DUP2 MLOAD SWAP1 POP SWAP2 SWAP1 POP JUMP JUMPDEST PUSH1 0x0 DUP2 SWAP1 POP SWAP3 SWAP2 POP POP JUMP JUMPDEST PUSH1 0x0 DUP3 DUP3 MSTORE PUSH1 0x20 DUP3 ADD SWAP1 POP SWAP3 SWAP2 POP POP JUMP JUMPDEST PUSH1 0x0 DUP2 SWAP1 POP SWAP3 SWAP2 POP POP JUMP JUMPDEST PUSH1 0x0 PUSH2 0x5C8 DUP3 PUSH2 0x5E1 JUMP JUMPDEST SWAP1 POP SWAP2 SWAP1 POP JUMP JUMPDEST PUSH1 0x0 PUSH2 0x5DA DUP3 PUSH2 0x5E1 JUMP JUMPDEST SWAP1 POP SWAP2 SWAP1 POP JUMP JUMPDEST PUSH1 0x0 PUSH20 0xFFFFFFFFFFFFFFFFFFFFFFFFFFFFFFFFFFFFFFFF DUP3 AND SWAP1 POP SWAP2 SWAP1 POP JUMP JUMPDEST PUSH1 0x0 JUMPDEST DUP4 DUP2 LT ISZERO PUSH2 0x61F JUMPI DUP1 DUP3 ADD MLOAD DUP2 DUP5 ADD MSTORE PUSH1 0x20 DUP2 ADD SWAP1 POP PUSH2 0x604 JUMP JUMPDEST DUP4 DUP2 GT ISZERO PUSH2 0x62E JUMPI PUSH1 0x0 DUP5 DUP5 ADD MSTORE JUMPDEST POP POP POP POP JUMP JUMPDEST PUSH1 0x0 PUSH1 0x1F NOT PUSH1 0x1F DUP4 ADD AND SWAP1 POP SWAP2 SWAP1 POP JUMP JUMPDEST PUSH2 0x64E DUP2 PUSH2 0x5CF JUMP JUMPDEST DUP2 EQ PUSH2 0x659 JUMPI PUSH1 0x0 DUP1 REVERT JUMPDEST POP JUMP INVALID LOG2 PUSH5 0x6970667358 0x22 SLT KECCAK256 SWAP15 0xD9 0xCA 0xCD JUMPDEST SWAP11 0xFB ORIGIN EXTCODEHASH CALLER 0xCE 0x26 SWAP7 SWAP3 AND EQ STOP PC PUSH31 0xD7B9124D7B72D059727C08FE4B64736F6C6343000800003300000000000000 "
				},
				"gasEstimates": {
					"creation": {
						"codeDepositCost": "336400",
						"executionCost": "21240",
						"totalCost": "357640"
					},
					"external": {
						"owner()": "1211",
						"withdrawAllETH()": "infinite",
						"withdrawETH(address)": "infinite"
					}
				},
				"methodIdentifiers": {
					"owner()": "8da5cb5b",
					"withdrawAllETH()": "90386bbf",
					"withdrawETH(address)": "690d8320"
				}
			},
			"storageLayout": {
				"storage": [
					{
						"astId": 3,
						"contract": "withdraw.sol:WithdrawHelper",
						"label": "owner",
						"offset": 0,
						"slot": "0",
						"type": "t_address"
					}
				],
				"types": {
					"t_address": {
						"encoding": "inplace",
						"label": "address",
						"numberOfBytes": "20"
					}
				}
			},
			"userdoc": {
				"kind": "user",
				"methods": {},
				"version": 1
			}
		}
	}
}